:080000000C9440000C94000078
:100008000C9400000C9400000C9400000C94000068
:100018000C9400000C9400000C9400000C94000058
:100028000C9400000C9400000C9400000C94000048
:100038000C9400000C9400000C9400000C94000038
:100048000C9400000C9400000C9400001027E803A6
:1000580064000A0001000010000110000100050002
:1000680000010203040506070809020004006600EF
:100078000A00600168000000F894EE27ECBBF1E08C
:10008800FBBFEBBFE5BF8DE0A2E0BB27ED938A95F0
:10009800E9F780E094E0A0E6ED930197E9F7E2E75D
:1000A800F0E085919591009761F0A591B591059043
:1000B8001590BF01F00105900D920197E1F7FB0142
:1000C800F0CFEFE5EDBFE4E0EEBFC0E6D1E00C9481
:1000D800AB00BA93AA9324970E942A010885198530
:1000E80030E03430E0F4E32FF0E0A3E0B0E00E9429
:1000F8002301EA1BFB0BDE011496EA0FFB1FBF016D
:10010800D801EAE0F0E00E942001DB01EC93D8017D
:10011800EAE0F0E00E940D018F013F5FE2CFD8983E
:10012800EC810E94FA00D89AD998ED810E94FA00D1
:10013800D99ADA98EE810E94FA00DA9ADB98EF8170
:100148000E94FA00DB9A0E942F012A960895EFEF89
:10015800E1BBE5BBE7BBEABBD201BBDF30D09C9B70
:1001680028D0FACFFFCFF20131972F01E1E0F0E07C
:100178004E165F060CF42F0109C0F20131962F01CB
:10018800EAE0F0E0E415F5050CF42F01D201A1DF57
:1001980008959C9B05C0D2019CDF909A9198F9CF55
:1001A80008959C9B05C0D20194DF9098919AF9CF4D
:1001B8000895A0E0B0E08DDF909891980895989BFD
:1001C800E8DF999BEEDF9A9907C09A9BFECFCBDFB9
:1001D800989BDFDF999BE5DF9B9907C09B9BFECF30
:1001E800CCDF989BD6DF999BDCDF0895F0E0E05ADE
:1001F800FE4FE081E8BBA1E0B0E00C94030110964B
:1002080039F080ED97E00197F1F7A8951197C9F7B4
:1002180008950024112490E1AA0FBB1F001C111C93
:100228000E1A1F0A18F40E0E1F1E01C0A1609A951F
:1002380099F7FD01D0010895ECDFFD0108951B2E0B
:10024800BF2FF12D1A2EAE2FE12D08953A932A9340
:100258001A930A9308953B812A8119810881089588
:00000001FF
