:0E0000000C9440000C946D000C9400000C94C5
:10000E0000000C9400000C9400000C9400000C9462
:10001E0000000C9400000C9488000C9400000C94CA
:10002E0000000C9400000C9400000C9400000C9442
:10003E0000000C9400000C9400000C9400000C9432
:10004E0000000C9400001027E80364000A00010071
:10005E00001000011000010005000001020304055C
:10006E00060708090200040066000A006001680025
:10007E000000F894EE27ECBBF1E0FBBFEBBFE5BF51
:10008E008DE0A2E0BB27ED938A95E9F780E094E03E
:10009E00A0E6ED930197E9F7E2E7F0E085919591FF
:1000AE00009761F0A591B59105901590BF01F001F3
:1000BE0005900D920197E1F7FB01F0CFEFE5EDBF53
:1000CE00E4E0EEBFC0E6D1E00C9412016A937A939D
:1000DE00AA93BA93EA93FA93EFB7EA93AAE6B1E03A
:1000EE000E948402EF5FFF4F6F4F7F4F0E94890285
:1000FE00E991EFBFF991E991B991A991799169913E
:10010E0018950A921A926A937A938A939A93AA935B
:10011E00BA93EA93FA93EFB7EA93E0916A01F091FA
:10012E006B0160916C0170916D01ABE4B0E080E009
:10013E0090E00E944802E0937201F0937301609385
:10014E007401709375010E94E401A0917A01B0913F
:10015E007B0180917C0190917D010E940002E093D1
:10016E007A01F0937B0160937C0170937D01E0E056
:10017E00E0936A01E0936B01E0936C01E0936D01F3
:10018E00E991EFBFF991E991B991A991999189916D
:10019E0079916991199009901895BA93AA93249719
:1001AE000E9495020885198530E03430E0F4E32F83
:1001BE00F0E0A3E0B0E00E948E02EA1BFB0BDE0132
:1001CE001496EA0FFB1FBF01D801EAE0F0E00E948F
:1001DE006002DB01EC93D801EAE0F0E00E944D02F0
:1001EE008F013F5FE2CFD898EC810E94ED01D89A43
:1001FE00D998ED810E94ED01D99ADA98EE810E948C
:10020E00ED01DA9ADB98EF810E94ED01DB9A0E94F4
:10021E009A022A960895EFEFE1BB9598909A9198DD
:10022E00E5BBE7BBEABBE3EBEFBDE9E0EEBDE0E02B
:10023E00EDBDECBDE7BDE6BDEBBDEABDE9BDE8BD7C
:10024E00E4E0E3BFE0E0E2BFECBFE1E0E9BFEBB723
:10025E00E064EBBFE2E0E5BFE0E0E4BFE0E4EABF6C
:10026E00D2019BDF93D0A0917201B0917301809166
:10027E00740190917501E0917601F0917701609192
:10028E007801709179010E940A02E0936E01F09359
:10029E006F016093700170937101A0917101AA2397
:1002AE001AF4E0E0F0E03EC00E94E401ACE2B1E0FE
:1002BE0080E090E00E9448027F936F93FF93EF934C
:1002CE00E0917A01F0917B0160917C0170917D014A
:1002DE00A4E6B0E080E090E00E944802AF91BF91AA
:1002EE008F919F910E940502A030E4E0BE07E0E0EE
:1002FE008E07E0E09E071CF0EFEFF3E013C0E091F5
:10030E006E01F0916F01ACE2B1E00E944302BF01B9
:10031E00E0917A01F0917B01A4E6B0E00E944302E5
:10032E00E60FF71FFBBDEABD9C9B2AD099CFFFCFEE
:10033E00F20131972F01E1E0F0E04E165F060CF46A
:10034E002F0109C0F20131962F01EAE0F0E0E41529
:10035E00F5050CF42F01D20120DF08959C9B06C0F9
:10036E00D2011BDF909A9198959AF8CF08959C9B95
:10037E0006C0D20112DF9098919A959AF8CF0895FF
:10038E00A0E0B0E00ADF909891980895989BE6DF80
:10039E00999BEDDF9A9907C09A9BFECFC9DF989B78
:1003AE00DDDF999BE4DF9B9907C09B9BFECFCADFE5
:1003BE00989BD4DF999BDBDF0895E0916E01F0915D
:1003CE006F0160917001709171010895F0E0E05A33
:1003DE00FE4FE081E8BBA1E0B0E00C94F601109670
:1003EE0039F080ED97E00197F1F7A8951197C9F7CD
:1003FE000895EA0FFB1F681F791F0895AE0FBF1FE8
:10040E00861F971F0895EA1BFB0B680B790B089547
:10041E00F195E195F0400895F09560957095E19510
:10042E00FF4F6F4F7F4F0895FA9FF02DEB9FF00D0A
:10043E00EA9FE02DF10D08957A9F702D6B9F700D40
:10044E00F89F700DE99F700D6A9F602D710DFB9FD7
:10045E00600D711DE89F600D711D8827FA9FF02DAC
:10046E00610D781FEB9FF00D611D781FEA9FE02D47
:10047E00F10D681F781F08951FD0D6DF0EF4C8DF68
:10048E00089528D0D9DF0EF4C7DF08950024112473
:10049E0090E1AA0FBB1F001C111C0E1A1F0A18F4A4
:1004AE000E0E1F1E01C0A1609A9599F7FD01D00195
:1004BE000895ECDFFD010895E894F7FF02C0A8DF70
:1004CE006894B7FF06C0A095B095119600F80394F6
:1004DE0000FA0895E89477FF02C09EDF689497FFB4
:1004EE000BC00024A095B095809590951196801D17
:1004FE00901D00F8039400FA0895ED91FD916D9111
:10050E007D9108957E936E93FE93EE9308951B2E28
:10051E00BF2FF12D1A2EAE2FE12D08953A932A9367
:10052E001A930A9308953B812A81198108810895AF
:00000001FF
