:100000000C943C000C9469000C9400000C940000CB
:100010000C9400000C9400000C9400000C94000060
:100020000C9400000C9484000C9400000C940000CC
:100030000C9400000C9400000C9400000C94000040
:100040000C9400000C9400000C9400000C94000030
:100050000C9400001027E80364000A00010000105F
:100060000001100001000001020304050607080951
:100070000A00600166000000F894EE27ECBBF1E096
:10008000FBBFEBBFE5BF8DE0A2E0BB27ED938A95F8
:10009000E9F780E094E0A0E6ED930197E9F7E0E767
:1000A000F0E085919591009761F0A591B59105904B
:1000B0001590BF01F00105900D920197E1F7FB014A
:1000C000F0CFEFE5EDBFE4E0EEBFC0E6D1E00C9489
:1000D00008016A937A93AA93BA93EA93FA93EFB7D3
:1000E000EA93AAE6B1E00E94F502EF5FFF4F6F4F7F
:1000F0007F4F0E94FA02E991EFBFF991E991B9911E
:10010000A9917991699118950A921A926A937A93B2
:100110008A939A93AA93BA93EA93FA93EFB7EA93DE
:10012000E0916A01F0916B0160916C0170916D0139
:10013000ABE4B0E080E090E00E94B9020E94D301FD
:100140000E94DC01A0917A01B0917B0180917C0139
:1001500090917D010E947102E0937A01F0937B01FE
:1001600060937C0170937D01E0E0E0936A01E0938D
:100170006B01E0936C01E0936D01E991EFBFF991A0
:10018000E991B991A9919991899179916991199080
:1001900009901895BA93AA9324970E94060308859C
:1001A000198530E03430E0F4E32FF0E0A3E0B0E074
:1001B0000E94FF02EA1BFB0BDE011496EA0FFB1FF5
:1001C000BF01D801EAE0F0E00E94D102DB01EC932C
:1001D000D801EAE0F0E00E94BE028F013F5FE2CF6B
:1001E000D898EC810E94E501D89AD998ED810E94B7
:1001F000E501D99ADA98EE810E94E501DA9ADB9856
:10020000EF810E94E501DB9A0E940B032A96089574
:10021000EFEFE1BB9598E3EBEFBDE9E0EEBDE0E089
:10022000EDBDECBDE7BDE6BDEBBDEABDE9BDE8BD9A
:10023000E4E0E3BFE0E0E2BFECBFE1E0E9BFEBB741
:10024000E064EBBFE2E0E5BFE0E0E4BFE0E4EABF8A
:10025000EFEFE5BBE7BBEABB0E94EE018DD09C9BB4
:1002600085D0FACFFFCF0E94F401EF5FFF4F6F4FB1
:100270007F4F0E94FD01AB30E0E0BE07E0E08E075B
:10028000E0E09E0734F0EAE0F0E060E070E00E9419
:10029000D30116C00E94F401E150F040604070406C
:1002A0000E94FD01A130E0E0BE07E0E08E07E0E043
:1002B0009E0734F4E1E0F0E060E070E00E94D301DA
:1002C000A0917201B091730165DF08959C9B25C0D8
:1002D0000E94EE019098919AE2E3F0E060E070E015
:1002E0000E9407021AF4E0E0F0E014C00E9432021B
:1002F0007F936F93FF93EF930E943A02AF91BF9168
:100300008F919F910E9449021CF0EFEFF3E002C031
:100310000E945302FBBDEABDD9CF08959C9B25C026
:100320000E94EE01909A9198E5E0F0E060E070E0C4
:100330000E9407021AF4E0E0F0E014C00E943202CA
:100340007F936F93FF93EF930E943A02AF91BF9117
:100350008F919F910E9449021CF0EFEFF3E002C0E1
:100360000E945302FBBDEABDD9CF0895A0E0B0E0E2
:1003700011DF909891980895989BA8DF999BCEDF04
:100380009A9907C09A9BFECF6EDF989B9FDF999B3F
:10039000C5DF9B9907C09B9BFECF7CDF989B96DFB8
:1003A000999BBCDF0895E0937201F0937301609311
:1003B0007401709375010895E0916E01F0916F01E1
:1003C00060917001709171010895F0E0E05AFE4F64
:1003D000E081E8BBA1E0B0E00C946702A09172015B
:1003E000B09173010C94CA00E0917201F091730115
:1003F00060917401709175010895D5DFA09172012B
:10040000B091730180917401909175010895E0930A
:100410007601F09377016093780170937901959A52
:10042000A2E3B0E00E946702A0917201B091730153
:100430008091740190917501E0917601F0917701BE
:1004400060917801709179010E947B02E0936E01C6
:10045000F0936F016093700170937101A09171012D
:10046000AA230895A9DFACE2B1E080E090E00E9409
:10047000B9020895E0917A01F0917B0160917C01CD
:1004800070917D01A4E6B0E080E090E00E94B902A6
:1004900008950E947602A030E4E0BE07E0E08E07F7
:1004A000E0E09E070895E0916E01F0916F01ACE2EB
:1004B000B1E00E94B402BF01E0917A01F0917B01AA
:1004C000A4E6B0E00E94B402E60FF71F089510966C
:1004D00039F080ED97E00197F1F7A8951197C9F7EA
:1004E0000895EA0FFB1F681F791F0895AE0FBF1F05
:1004F000861F971F0895EA1BFB0B680B790B089565
:10050000F195E195F0400895F09560957095E1952D
:10051000FF4F6F4F7F4F0895FA9FF02DEB9FF00D27
:10052000EA9FE02DF10D08957A9F702D6B9F700D5D
:10053000F89F700DE99F700D6A9F602D710DFB9FF4
:10054000600D711DE89F600D711D8827FA9FF02DC9
:10055000610D781FEB9FF00D611D781FEA9FE02D64
:10056000F10D681F781F08951FD0D6DF0EF4C8DF85
:10057000089528D0D9DF0EF4C7DF08950024112490
:1005800090E1AA0FBB1F001C111C0E1A1F0A18F4C1
:100590000E0E1F1E01C0A1609A9599F7FD01D001B2
:1005A0000895ECDFFD010895E894F7FF02C0A8DF8D
:1005B0006894B7FF06C0A095B095119600F8039413
:1005C00000FA0895E89477FF02C09EDF689497FFD1
:1005D0000BC00024A095B095809590951196801D34
:1005E000901D00F8039400FA0895ED91FD916D912E
:1005F0007D9108957E936E93FE93EE9308951B2E46
:10060000BF2FF12D1A2EAE2FE12D08953A932A9384
:100610001A930A9308953B812A81198108810895CC
:00000001FF
