:100000000C9437000C9400000C9400000C94000039
:100010000C9400000C9400000C9400000C94000060
:100020000C9400000C9400000C9400000C94000050
:100030000C9400000C9400000C9400000C94000040
:100040000C9400000C9400000C9400000C94000030
:100050000C94000080000001020304050607080953
:1000600001000B0054000A00600156000000F894E3
:10007000EE27ECBBF1E0FBBFEBBFE5BF8DE0A2E0FC
:10008000BB27ED938A95E9F780E094E0A0E6ED9335
:100090000197E9F7E0E6F0E085919591009761F02E
:1000A000A591B59105901590BF01F00105900D92B5
:1000B0000197E1F7FB01F0CFEFE5EDBFE4E0EEBF24
:1000C000C0E6D1E00C94D500CA9910C0CBD0CA9933
:1000D0000DC0CA9BFECF80949094E1E0F0E0E8155B
:1000E000F90511F43F0102C0662477240895C899E8
:1000F0000FC0B8D0C8990CC0C89904C0F30131969C
:100100003F01FACFEAE0F0E0E615F70508F43F0119
:100110000895C9990FC0A6D0C9990CC0C99904C047
:10012000F30131973F01FACFE1E0F0E06E167F0670
:1001300008F43F010895BA93AA9324970E946E0190
:100140000885198530E03430E0F4E32FF0E0A3E0D7
:10015000B0E00E946701EA1BFB0BDE011496EA0F78
:10016000FB1FBF01D801EAE0F0E00E946401DB015F
:10017000EC93D801EAE0F0E00E9451018F013F5F6B
:10018000E2CFAC98EC8172D0AC9AAD98ED816ED094
:10019000AD9AAE98EE816AD0AE9AAF98EF8166D0F4
:1001A000AF9A0E9473012A960895E0E0EABBEBBB88
:1001B000EFEFEABBEBBBE0E0E7BBE8BBEFEFE7BB91
:1001C000E8BBE0E0E4BBE5BBEFEFE4BBEFE0E5BBA1
:1001D000E0E1E1BBE0E0E2BBE9E4E3BFE0E0E2BF95
:1001E000ECBFE3E2EFBDE9E1EEBDE0E0EDBDECBD6B
:1001F000E7BDE6BDEFE1EBBDEFE3EABDE0E0E9BD61
:10020000E4E0E8BDE0E0E2BDEBE4E5BDE0E0E4BD54
:10021000E3BDE9BFE5BFE4BFEAB9E0E8E8B9E0E083
:10022000E0BFE6B9EDB9E6BFA2EDB4E084DFE1E0FE
:10023000F0E0E815F90511F45ADF6BDF45DFF30153
:10024000A4E6B0E00E9449012F01BCBEA8EEB3E0D5
:100250000E943F01EAE0BE0EEFEFEB1508F4BB246D
:10026000E3CFFFCFA4E1B0E00C943F01F0E0E05A0F
:10027000FE4FE081E8BBA1E0B0E00C943F01109696
:1002800039F080ED97E00197F1F7A8951197C9F73C
:100290000895FA9FF02DEB9FF00DEA9FE02DF10DF0
:1002A00008950024112490E1AA0FBB1F001C111C0B
:1002B0000E1A1F0A18F40E0E1F1E01C0A1609A9597
:1002C00099F7FD01D0010895ECDFFD0108951B2E83
:1002D000BF2FF12D1A2EAE2FE12D08953A932A93B8
:1002E0001A930A9308953B812A8119810881089500
:00000001FF
