:040000000C9442001A
:100004000C9400000C9400000C9400000C9400006C
:100014000C9400000C9400000C9400000C9400005C
:100024000C9400000C9400000C9400000C9400004C
:100034000C9400000C9400000C9400000C9400003C
:100044000C9400000C9400000C9400000C9400002C
:100054001027E80364000A000100001000011000EA
:1000640001000000000014000000000025640000EE
:1000740080C00A00040066000200720274000000DE
:10008400F894EE27ECBBF1E0FBBFEBBFE5BF8DE0DE
:10009400A2E0BB27ED938A95E9F780E098E0A0E61B
:1000A400ED930197E9F7E6E7F0E0859195910097E4
:1000B40061F0A591B59105901590BF01F0010590EF
:1000C4000D920197E1F7FB01F0CFEFE5EDBFE8E01A
:1000D400EEBFC0E6D2E00C946F00E0EFE7BBEFEFB9
:1000E400EABBA0E183D1D6D02F01A2E3B0E00E9405
:1000F4003B046501CFD03F01A2E3B0E00E943B0482
:10010400E5E0F0E0EA15FB0509F04AC0E1E0EA9316
:10011400A1E01CD1E4E0F0E0EC15FD0541F40E94FF
:10012400E803F301E40DF51D0E94F70430C0E3E099
:10013400F0E0EC15FD0541F40E94E803F201E61934
:10014400F7090E94F70423C0E2E0F0E0EC15FD0596
:1001540049F40E94E803F301D2010E9404050E94BD
:10016400F70415C0E1E0F0E0EC15FD05B1F40E94E0
:10017400E803F2010E94F7040E947404DF01CB013A
:10018400F3010E94F7040E9474040E94A2040E94D6
:10019400370584E00E949B0328960E94F103B0CFA8
:1001A400FFCFE4E1F0E04F01EFEFE8BBC4980E9419
:1001B400F903B09903C0E7E0F0E04F01B19903C03F
:1001C400E4E0F0E04F01B29903C0E1E0F0E04F0158
:1001D400B39903C0CCD0AA24BB24C49AC5980E9466
:1001E400F903B09903C0E8E0F0E04F01B19903C00E
:1001F400E5E0F0E04F01B29903C0E2E0F0E04F0126
:10020400B39902C088249924C59AC6980E94F90318
:10021400B09903C0E9E0F0E04F01B19903C0E6E012
:10022400F0E04F01B29903C0E3E0F0E04F01B3996D
:1002340007C0ADE3AAD0E5E0F0E05F010E94FD0352
:10024400C69AC7980E94F903B09907C0AFE29DD03F
:10025400E1E0F0E06F010E94FD03B19907C0AAE25A
:1002640094D0E2E0F0E06F010E94FD03B29907C070
:10027400ADE28BD0E3E0F0E06F010E94FD03B3999F
:1002840007C0ABE282D0E4E0F0E06F010E94FD031E
:10029400C79A0895AA24BB24E0E0E0936002E093A7
:1002A4006102E1E0F0E0AE16BF063CF57ADFE4E17E
:1002B400F0E0E815F90501F10E94E803F4010E9459
:1002C400F7040E94370584E00E949B0328960E944D
:1002D400F103F401A0916002B0916102EA0FFB1FE7
:1002E400E0936002F0936102AAE0B0E00E9404058A
:1002F400E0936002F0936102D4CFA0916002B091C8
:100304006102EAE0F0E00E941C050895AA93EBB3B1
:10031400EF70AE2FE881E07FEA2BEBBB8DE08A958E
:10032400F1F7DA9A8DE08A95F1F7DA988DE08A95FB
:10033400F1F789C0AA93A881E9DFE881E295E8830F
:10034400A881E4DF85E88A95F1F77DC0AA93E88166
:10035400F0E0EE58FD4FE081A981AE0FEBDFE981BB
:10036400E0937602E881E093770222960895A2E072
:100374000E940104ACE0DEDFA1E00E940104E0E0A1
:10038400E0937702E09376020895AA93A881AA30B5
:1003940031F0E0917802A0917602AE1760F0E0E0CF
:1003A400EA93A0917702AF5FA0937702CFDFA88191
:1003B400AA3009F448C0E0917602EF5FE093760238
:1003C400D89AA881B7DFD8983EC0BA93AA931A9353
:1003D400A981BA81ED91A983BA831E2FE03019F067
:1003E400A12FD3DFF5CF188123960895AA93EAB3FA
:1003F400E06FEABBD29AD09AD19ADA98D898D99871
:10040400E881E0937802E058E0937402E881E054D4
:10041400E0937502A4E1B0E00E943B040E9407044B
:100424000E9407040E940704A0E270DF88EC90E0B9
:100434000197F1F7A8E27EDFA4E07CDFA5E87ADF8C
:10044400A6E078DF94DF21960895BA93AA931A93CD
:100454000A93AA81BB8112960E942F05309759F105
:10046400AA81BB8114960E942F058F01309761F0F9
:100474000230E0E01E0798F0F80131978F01AA815D
:10048400BB811496ED93FC93AA81BB811296ED91E6
:10049400FD913196FE93EE933197AC81A083AA81AE
:1004A400BB810E942F05FF232AF0ED91FD91319627
:1004B400FE93EE9306C0AA81BB81EFEFFFEFED93AD
:1004C400FC931981088125960895BA93AA932697D7
:1004D4000E943C0510E0AC85BD85E0E0F0E0ED93C2
:1004E400FC93EA89FB893196EA8BFB8B3197E49183
:1004F4002E2FE03009F415C1E12FE03039F4253214
:1005040011F411E002C00E940F040AC1E130A9F401
:10051400253219F40E940F0402C112E040E000E009
:100524002D3211F401E0FCC02B3211F44BE2F8C07F
:10053400203211F440E2F4C002C0E23039F450E059
:1005440013E0203311F40068EBC003C0E33009F07A
:10055400E7C0203310F02A3308F007C0AAE05A9FFE
:10056400502DE22FE0535E0FDBC0E22FE33649F457
:100574000E941604E889F989A481AA930E941C04A4
:10058400CEC0E33741F40E9416040E9422040E9464
:10059400CF031E2F0AC0E03761F40E9416040E94A4
:1005A40022040E94DB031E2F086002600F7730E0F4
:1005B40034C0E43611F0E93611F4046002C0E537C2
:1005C40031F4E4E5F0E0EE83FF8315E00CC0E83598
:1005D40011F4086003C0E83709F0A1C0EEE5F0E0CB
:1005E400EE83FF8314E002FF14C00E9416040E94ED
:1005F4002C04AB85AA233AF4EA85FB850E94EB041C
:10060400EA87FB874DE2403011F01F5F01C00B7F8A
:1006140004C00E9416040E942C0400FD11C015178A
:1006240078F407FF08C002FF04C00B7F242F115089
:1006340001C020E301C020E20E940F045150EFCF1B
:10064400312F01FF17C03030A1F003FF06C0EE8147
:10065400FF812591EE83FF8305C0AE81BF812D917B
:10066400AE83BF830E940F04503009F051503150C3
:10067400EACF4BC020E3EE81FF810E943305E88777
:10068400F987EE81FF813296EE83FF83E885F98551
:10069400AA85BB85AE17BF0750F02F5FA885B98523
:1006A400EA85FB85EA1BFB0BEA87FB87EFCF2A333E
:1006B40028F003FF02C0295F01C0295D04FD1AC0B0
:1006C400213320F4A885B985119709F409C053177B
:1006D40010F000FF01C013C020E207FF0BC020E3AD
:1006E400006102FF07C00B7F4A930E941C04503034
:1006F40009F051500E940F04503009F0515031500C
:10070400A885B985129708F0B5CF00FF08C050300E
:1007140031F05150E0E2EA930E941C04F8CF10E05B
:10072400E0CEAC85BD850E942F050E9443056496EA
:100734000895FF92F82E26970E943E050E943404E5
:10074400309719F4EFEFFFEF23C0DE0116960E94F5
:10075400E7048D010E943404EE83FF83E0E0E88720
:10076400E987DE011A960E94E7040E942F05FA9396
:10077400EA931A930A93E7E2F2E0FA93EA93DE012A
:100784001A96A3DE9F01AE81BF81E0E0EC93F901EC
:100794000E9445052A96FF900895BA93AA93A991B9
:1007A400B991EE27FF276D91662311F03196FBCFA7
:1007B4000895BA93AA93AA27BB27E991F9910590C2
:1007C400002011F01196FBCFFD010895E2E6F2E05E
:1007D400FA93EA93E0E7F0E0FA93EA930895A2E645
:1007E400B2E00E94E701AEE1B0E00C943B04A2E069
:1007F400B0E00C943B04AEE1B0E00C943B040E94E6
:100804009C01A3E0B0E00C943B04A0E30E948801A7
:1008140088EC90E00197F1F708952A93AD85BE85A1
:10082400EF85F88909950895E889F9893497E88B63
:10083400F98B0895AD85BE85EF85F88909950895EE
:10084400A889B98914960E942F05EE83FF83AE818F
:10085400BF810895A889B98914960E942F05EA8753
:10086400FB870895DE011C960E94E7040E942F0571
:100874000895109639F080ED97E00197F1F7A89567
:100884001197C9F70895552342F4503811F4E0FF45
:1008940004C03196691F791F6BF050E8572711F493
:1008A4005F933CC05F3F31F0660F000C579567952E
:1008B400752F08955F9300200AF03CC035C050E8BE
:1008C400192E1522880F991F9527550F879550E8E3
:1008D400072E0522660F771F7527550F6795089514
:1008E400689401C0E894309760407040B1F00024EF
:1008F40026F0772312F4009470D0172E7EE1112095
:1009040032F07A95EE0FFF1F661F111CF9CFEF2FFF
:10091400F62F612D5F93C1DF5F910895EE27FF27C6
:10092400662777275F910895EFEFFFEF6FE77FEF7B
:100934005F910895EFEFFFEF6FE77FE75F91089511
:100944005F93BDDF703821F411200AF4EDCFF2CFAC
:10095400903809F4E3CF01240894970B1BF4D4F3E3
:100964000020F3CF792F1F932F933F934F9311249C
:100974001127222733274427552790E2AE17BF07B4
:100984008607410730F0AE1BBF0B860B410B089462
:1009940001C08894551F221F331F111CAA1FBB1F9F
:1009A400881F441F9A9551F7F901612D4F913F918A
:1009B4002F911F91662332F0550FEE1FFF1F661F04
:1009C4007A9543F260DF5F9108950024AF0DB01D66
:1009D4000895F195E195F0400895F095609570952E
:1009E400E195FF4F6F4F7F4F08956F2F660F660B92
:1009F400762F0895FA9FF02DEB9FF00DEA9FE02DDE
:100A0400F10D08951CD0F6DF0EF4E3DF0895002401
:100A1400112490E1AA0FBB1F001C111C0E1A1F0AFF
:100A240018F40E0E1F1E01C0A1609A9599F7FD01DE
:100A3400D001089504D0EBDF0EF4CBDF0895E894E1
:100A4400F7FF02C0C6DF6894B7FF06C0A095B09553
:100A5400119600F8039400FA0895ED91FC91119712
:100A640008950590F491E02D08957A936A93FA938A
:100A7400EA9308955A934A933A932A931A930A93BA
:100A840008955D814C813B812A81198108810895F3
:00000001FF
