:060000000C9437000C9483
:1000060000000C9400000C9400000C9400000C946A
:1000160000000C9400000C9400000C9400000C945A
:1000260000000C9400000C9400000C9400000C944A
:1000360000000C9400000C9400000C9400000C943A
:1000460000000C9400000C9400000C94000080004A
:100056000001020304050607080901000B0054000D
:100066000A00600156000000F894EE27ECBBF1E0B0
:10007600FBBFEBBFE5BF8DE0A2E0BB27ED938A9502
:10008600E9F780E094E0A0E6ED930197E9F7E0E672
:10009600F0E085919591009761F0A591B591059055
:1000A6001590BF01F00105900D920197E1F7FB0154
:1000B600F0CFEFE5EDBFE4E0EEBFC0E6D1E00C9493
:1000C600D500CA9910C0AED0CA990DC0CA9BFECF42
:1000D60080949094E1E0F0E0E815F90511F43F0111
:1000E60002C0662477240895C8990FC09BD0C8998A
:1000F6000CC0C89904C0F30131963F01FACFEAE07B
:10010600F0E0E615F70508F43F010895C9990FC018
:1001160089D0C9990CC0C99904C0F30131973F0130
:10012600FACFE1E0F0E06E167F0608F43F0108958D
:10013600BA93AA9324970E9451010885198530E045
:100146003430E0F4E32FF0E0A3E0B0E00E944A018F
:10015600EA1BFB0BDE011496EA0FFB1FBF01D80159
:10016600EAE0F0E00E944701DB01EC93D801EAE007
:10017600F0E00E9434018F013F5FE2CFAC98EC8142
:1001860055D0AC9AAD98ED8151D0AD9AAE98EE812E
:100196004DD0AE9AAF98EF8149D0AF9A0E945601E2
:1001A6002A960895E0E0EABBEBBBEFEFEABBEBBBB8
:1001B600E7BBE8BBE7BBE8BBE0E0E4BBE5BBEFEFD2
:1001C600E4BBEFE0E5BBE0E0E1BBE2BB4424552441
:1001D6008824992466247724889AEAE6E3BF8D9AD0
:1001E6008F9A909A9598979AA2EDB4E0A1DFE1E0F4
:1001F600F0E0E815F90511F477DF88DF62DFF30137
:10020600A4E6B0E00E942C012F01BCBEA8EEB3E02C
:100216000E942201EAE0BE0EEFEFEB1508F4BB24C4
:10022600E3CFFFCFA4E1B0E00C942201F0E0E05A66
:10023600FE4FE081E8BBA1E0B0E00C9422011096ED
:1002460039F080ED97E00197F1F7A8951197C9F776
:100256000895FA9FF02DEB9FF00DEA9FE02DF10D2A
:1002660008950024112490E1AA0FBB1F001C111C45
:100276000E1A1F0A18F40E0E1F1E01C0A1609A95D1
:1002860099F7FD01D0010895ECDFFD0108951B2EBD
:10029600BF2FF12D1A2EAE2FE12D08953A932A93F2
:1002A6001A930A9308953B812A811981088108953A
:00000001FF
